{
  "_format": "hh3-artifact-1",
  "contractName": "Inheritance",
  "sourceName": "contracts/Inheritance.sol",
  "abi": [
    {
      "inputs": [
        {
          "internalType": "address",
          "name": "_wallet",
          "type": "address"
        },
        {
          "internalType": "uint256",
          "name": "_amount",
          "type": "uint256"
        }
      ],
      "name": "addBeneficiary",
      "outputs": [],
      "stateMutability": "nonpayable",
      "type": "function"
    },
    {
      "inputs": [
        {
          "internalType": "address",
          "name": "",
          "type": "address"
        },
        {
          "internalType": "uint256",
          "name": "",
          "type": "uint256"
        }
      ],
      "name": "beneficiaries",
      "outputs": [
        {
          "internalType": "address",
          "name": "wallet",
          "type": "address"
        },
        {
          "internalType": "uint256",
          "name": "amount",
          "type": "uint256"
        },
        {
          "internalType": "bool",
          "name": "claimed",
          "type": "bool"
        }
      ],
      "stateMutability": "view",
      "type": "function"
    },
    {
      "inputs": [],
      "name": "cancelPlan",
      "outputs": [],
      "stateMutability": "nonpayable",
      "type": "function"
    },
    {
      "inputs": [
        {
          "internalType": "address",
          "name": "_owner",
          "type": "address"
        }
      ],
      "name": "claim",
      "outputs": [],
      "stateMutability": "nonpayable",
      "type": "function"
    },
    {
      "inputs": [
        {
          "internalType": "uint256",
          "name": "_inactivityPeriod",
          "type": "uint256"
        }
      ],
      "name": "createPlan",
      "outputs": [],
      "stateMutability": "nonpayable",
      "type": "function"
    },
    {
      "inputs": [],
      "name": "deposit",
      "outputs": [],
      "stateMutability": "payable",
      "type": "function"
    },
    {
      "inputs": [
        {
          "internalType": "address",
          "name": "_owner",
          "type": "address"
        }
      ],
      "name": "getBeneficiaries",
      "outputs": [
        {
          "components": [
            {
              "internalType": "address",
              "name": "wallet",
              "type": "address"
            },
            {
              "internalType": "uint256",
              "name": "amount",
              "type": "uint256"
            },
            {
              "internalType": "bool",
              "name": "claimed",
              "type": "bool"
            }
          ],
          "internalType": "struct Inheritance.Beneficiary[]",
          "name": "",
          "type": "tuple[]"
        }
      ],
      "stateMutability": "view",
      "type": "function"
    },
    {
      "inputs": [
        {
          "internalType": "address",
          "name": "_owner",
          "type": "address"
        }
      ],
      "name": "isInactive",
      "outputs": [
        {
          "internalType": "bool",
          "name": "",
          "type": "bool"
        }
      ],
      "stateMutability": "view",
      "type": "function"
    },
    {
      "inputs": [],
      "name": "ping",
      "outputs": [],
      "stateMutability": "nonpayable",
      "type": "function"
    },
    {
      "inputs": [
        {
          "internalType": "address",
          "name": "",
          "type": "address"
        }
      ],
      "name": "plans",
      "outputs": [
        {
          "internalType": "address",
          "name": "owner",
          "type": "address"
        },
        {
          "internalType": "uint256",
          "name": "lastPing",
          "type": "uint256"
        },
        {
          "internalType": "uint256",
          "name": "inactivityPeriod",
          "type": "uint256"
        },
        {
          "internalType": "uint256",
          "name": "totalBalance",
          "type": "uint256"
        },
        {
          "internalType": "uint256",
          "name": "totalAllocated",
          "type": "uint256"
        },
        {
          "internalType": "bool",
          "name": "exists",
          "type": "bool"
        }
      ],
      "stateMutability": "view",
      "type": "function"
    }
  ],
  "bytecode": "0x6080604052348015600e575f5ffd5b50610bd78061001c5f395ff3fe60806040526004361061008f575f3560e01c80637a43bf20116100575780637a43bf201461017257806386d86d841461019157806396074e7014610225578063d0e30db014610244578063f75b4ddd1461024c575f5ffd5b80631cab59a4146100935780631e83409a146100c8578063529849e9146100e95780635c36b1861461012f5780635fcbc89614610143575b5f5ffd5b34801561009e575f5ffd5b506100b26100ad366004610a79565b610260565b6040516100bf9190610a99565b60405180910390f35b3480156100d3575f5ffd5b506100e76100e2366004610a79565b6102fb565b005b3480156100f4575f5ffd5b50610108610103366004610aff565b6104e6565b604080516001600160a01b03909416845260208401929092521515908201526060016100bf565b34801561013a575f5ffd5b506100e7610531565b34801561014e575f5ffd5b5061016261015d366004610a79565b610579565b60405190151581526020016100bf565b34801561017d575f5ffd5b506100e761018c366004610b27565b6105ee565b34801561019c575f5ffd5b506101ec6101ab366004610a79565b5f602081905290815260409020805460018201546002830154600384015460048501546005909501546001600160a01b039094169492939192909160ff1686565b604080516001600160a01b03909716875260208701959095529385019290925260608401526080830152151560a082015260c0016100bf565b348015610230575f5ffd5b506100e761023f366004610aff565b6106d5565b6100e761085a565b348015610257575f5ffd5b506100e76108f8565b6001600160a01b0381165f908152600160209081526040808320805482518185028101850190935280835260609492939192909184015b828210156102f0575f848152602090819020604080516060810182526003860290920180546001600160a01b031683526001808201548486015260029091015460ff161515918301919091529083529092019101610297565b505050509050919050565b61030481610579565b61034a5760405162461bcd60e51b81526020600482015260126024820152714f776e6572207374696c6c2061637469766560701b60448201526064015b60405180910390fd5b6001600160a01b0381165f908152600160205260408120905b81548110156104ab57336001600160a01b031682828154811061038857610388610b3e565b5f9182526020909120600390910201546001600160a01b0316036104a3578181815481106103b8576103b8610b3e565b5f91825260209091206002600390920201015460ff161561040d5760405162461bcd60e51b815260206004820152600f60248201526e105b1c9958591e4818db185a5b5959608a1b6044820152606401610341565b600182828154811061042157610421610b3e565b905f5260205f2090600302016002015f6101000a81548160ff021916908315150217905550336001600160a01b03166108fc83838154811061046557610465610b3e565b905f5260205f2090600302016001015490811502906040515f60405180830381858888f1935050505015801561049d573d5f5f3e3d5ffd5b50505050565b600101610363565b5060405162461bcd60e51b815260206004820152600f60248201526e4e6f742062656e656669636961727960881b6044820152606401610341565b6001602052815f5260405f2081815481106104ff575f80fd5b5f9182526020909120600390910201805460018201546002909201546001600160a01b03909116935090915060ff1683565b335f9081526020819052604090206005015460ff166105625760405162461bcd60e51b815260040161034190610b52565b335f90815260208190526040902042600190910155565b6001600160a01b038082165f90815260208181526040808320815160c081018352815490951685526001810154928501839052600281015491850182905260038101546060860152600481015460808601526005015460ff16151560a08501529192916105e591610b7c565b42119392505050565b335f9081526020819052604090206005015460ff16156106465760405162461bcd60e51b8152602060048201526013602482015272506c616e20616c72656164792065786973747360681b6044820152606401610341565b6040805160c081018252338082524260208084019182528385019586525f6060850181815260808601828152600160a088018181529684529383905296909120945185546001600160a01b0319166001600160a01b0390911617855591519084015593516002830155925160038201559051600482015590516005909101805460ff1916911515919091179055565b335f9081526020819052604090206005015460ff166107065760405162461bcd60e51b815260040161034190610b52565b6001600160a01b03821661074e5760405162461bcd60e51b815260206004820152600f60248201526e496e76616c6964206164647265737360881b6044820152606401610341565b335f90815260208190526040902060038101546004820154610771908490610b7c565b11156107bf5760405162461bcd60e51b815260206004820152601a60248201527f416c6c6f636174696f6e2065786365656473206465706f7369740000000000006044820152606401610341565b335f90815260016020818152604080842081516060810183526001600160a01b038981168252818501898152938201878152835480880185559388529487209151600390930290910180546001600160a01b03191692909116919091178155905192810192909255516002909101805460ff1916911515919091179055600482018054849290610850908490610b7c565b9091555050505050565b335f9081526020819052604090206005015460ff1661088b5760405162461bcd60e51b815260040161034190610b52565b5f34116108d05760405162461bcd60e51b815260206004820152601360248201527204465706f736974206d757374206265203e203606c1b6044820152606401610341565b335f90815260208190526040812060030180543492906108f1908490610b7c565b9091555050565b335f9081526020819052604090206005015460ff166109295760405162461bcd60e51b815260040161034190610b52565b335f9081526020819052604090206003810154806109825760405162461bcd60e51b81526020600482015260166024820152754e6f2062616c616e636520746f20776974686472617760501b6044820152606401610341565b335f90815260016020526040812061099991610a08565b335f8181526020819052604080822080546001600160a01b031916815560018101839055600281018390556003810183905560048101839055600501805460ff191690555183156108fc0291849190818181858888f19350505050158015610a03573d5f5f3e3d5ffd5b505050565b5080545f8255600302905f5260205f2090810190610a269190610a29565b50565b5b80821115610a5a5780546001600160a01b03191681555f600182015560028101805460ff19169055600301610a2a565b5090565b80356001600160a01b0381168114610a74575f5ffd5b919050565b5f60208284031215610a89575f5ffd5b610a9282610a5e565b9392505050565b602080825282518282018190525f918401906040840190835b81811015610af457835180516001600160a01b031684526020808201518186015260409182015115159185019190915290930192606090920191600101610ab2565b509095945050505050565b5f5f60408385031215610b10575f5ffd5b610b1983610a5e565b946020939093013593505050565b5f60208284031215610b37575f5ffd5b5035919050565b634e487b7160e01b5f52603260045260245ffd5b60208082526010908201526f141b185b881b9bdd0818dc99585d195960821b604082015260600190565b80820180821115610b9b57634e487b7160e01b5f52601160045260245ffd5b9291505056fea2646970667358221220aad9e3b5e9cb10732be8f41ba0c71f0a644b74e43fe1eabee8bd8b632e2fdc7164736f6c634300081c0033",
  "linkReferences": {},
  "deployedLinkReferences": {},
  "immutableReferences": {},
  "inputSourceName": "project/contracts/Inheritance.sol",
  "buildInfoId": "solc-0_8_28-aef79f6441a0f0c17467fbd9c1006e733f40acbb"
}